:020000040800F2
:10000000002800209D150008A5140008AD14000864
:10001000B5140008BD140008C51400080000000055
:10002000000000000000000000000000CD140008E7
:10003000D914000800000000E5140008F1140008BD
:10004000E5150008E5150008E5150008E5150008A8
:10005000E5150008E5150008E5150008E515000898
:10006000E5150008E5150008E5150008E515000888
:10007000E5150008E5150008E5150008E515000878
:10008000E5150008E5150008E5150008E515000868
:10009000E5150008E5150008E5150008E515000858
:1000A000E5150008E5150008E5150008E515000848
:1000B000FD140008E515000800000000E515000823
:1000C000E51500080000000000000000E51500082C
:1000D00000000000E51500081115000800000000F0
:1000E000E5150008E5150008E5150008000000000A
:1000F0000000000000000000000000000000000000
:0C01000000000000000000005FF808F1A3
:10010C0010B5054C237833B9044B13B10448AFF345
:10011C0000800123237010BDD000002000000000DF
:10012C004846000808B5034B1BB103490348AFF31D
:10013C00008008BD00000000D400002048460008E4
:10014C0010F8012B11F8013B012A28BF9A42F7D075
:10015C00D01A7047034613F8012B002AFBD1181A4A
:10016C000138704780B483B000AF7860094A7B686F
:10017C0052F82330012B06D1064A7B68002142F845
:10018C002310012300E0002318460C37BD4680BC29
:10019C00704700BFEC00002080B483B000AF7860E3
:1001AC00094A7B6852F82330012B06D1064A7B683A
:1001BC00002142F82310012300E0002318460C37DD
:1001CC00BD4680BC704700BF0001002080B582B0E6
:1001DC0000AF00237B607BE0424A7B6852F823200F
:1001EC0041497B6841F82320404A7B6852F8232020
:1001FC003C497B6841F823204FF480613C4801F076
:10020C008BFD03461A46394B1A604FF4006138488F
:10021C0001F082FD03461A46344B5A60314A7B6822
:10022C0052F8232031497B6851F823309A424CD143
:10023C002C4A7B6852F823202B497B6851F82330D9
:10024C009A4242D1284A7B6852F8232029497B687C
:10025C0051F823309A4218D0234A7B6852F8232055
:10026C0024497B6841F82320224A7B6852F82330CA
:10027C00002B2AD1204A7B68642142F823101F4AA4
:10028C007B68012142F823101FE01A4A7B6852F860
:10029C002330002B19D1184A7B6852F82330002BDD
:1002AC0009DD154A7B6852F823305A1E12497B68C7
:1002BC0041F8232009E0124A7B68012142F82310FF
:1002CC000D4A7B68642142F823107B6801337B6004
:1002DC0005227B689342FFF67FAF00BF00BF083753
:1002EC00BD4680BD14000020280000200000002026
:1002FC00000801403C00002050000020EC000020D1
:10030C000001002080B58AB000AF934B1B680D2B09
:10031C0068D801A252F823F05D030008F10300082D
:10032C00F1030008F1030008F1030008F1030008D1
:10033C00F1030008F1030008F1030008F1030008C1
:10034C00F103000871030008B9030008D503000885
:10035C0000F040FB804B0B221A60804B1B68804ADC
:10036C00136046E000F064FB7D4B1B68002B06D14C
:10037C00794B0D221A607B4B1B68794A1360002065
:10038C00FFF70AFF0346012B2ED10221764801F01C
:10039C00F2FC714B15221A60744B15221A60704BCB
:1003AC0064221A60724B01221A601DE000F056FBA9
:1003BC006B4B1B68002B19D1674B0B221A60674BD8
:1003CC001B68674A136011E000F05EFB644B1B680E
:1003DC00002B0DD1604B0C221A60664B1B68604AD7
:1003EC00136005E000BF04E000BF02E000BF00E0C6
:1003FC0000BF5E4B1B680D2B52D801A252F823F0A4
:10040C0045040008AD040008AD040008AD04000864
:10041C00AD040008AD040008AD040008AD040008EC
:10042C00AD040008AD040008AD0400085904000830
:10043C00750400089104000800F0E2FA4B4B0D2201
:10044C001A60484B1B684A4A136030E000F032FBDC
:10045C00474B1B68002B25D1444B0D221A60414B96
:10046C001B68434A13601DE000F03CFB404B1B68CB
:10047C00002B19D13D4B0B221A60384B1B683C4AA0
:10048C00136011E000F046FB394B1B68002B0DD1BB
:10049C00364B0C221A60374B1B68354A136005E04B
:1004AC0000BF04E000BF02E000BF00E000BF2A4B29
:1004BC001B680A3B092B08D8294B1B68002B04DD51
:1004CC00274B1B68013B264A1360284B1B680A3BD1
:1004DC00092B08D8264B1B68002B04DD244B1B680A
:1004EC00013B234A13601C4B1B680A3B092B2FD87A
:1004FC00214B1B68002B2BDD1F4B1B68013B1E4A3D
:10050C0013601D4B1B68002B22D11B4B0A221A6057
:10051C00134B1B68194A82FB03129210DB17D11A7A
:10052C00134B1B68154A82FB03029210DB17D31A7C
:10053C0038460A46124903F0D1FB3B461846FFF7F2
:10054C0009FE03469AB2394664230E4802F0ACFD0C
:10055C0000BF2837BD4680BD20010020640000206C
:10056C00280100206C00002000080140240100201C
:10057C002C01002068000020700000206766666671
:10058C0060460008CC01002080B500AF704B1B68A2
:10059C00153B032B00F2C38001A252F823F000BFDD
:1005AC00BD0500081706000875060008CD060008F2
:1005BC0000F03EFA00F0AEFA664B1B68002B05D03B
:1005CC000020FFF7E9FD0346012B0DD1624B1B68A0
:1005DC00604A1360614B1B68614A13605C4B0B22D1
:1005EC001A60604B0D221A600020FFF7BBFD03461A
:1005FC00012B40F09680564B16221A60554B642204
:10060C001A60574B01221A608BE000F011FA00F0CF
:10061C0069FA504B1B68002B05D00020FFF7BCFD7E
:10062C000346012B10D14C4B1A684C4B1B68D31A48
:10063C00484A13604C4B1B68494A1360444B0B22CD
:10064C001A60484B0C221A600020FFF78BFD034602
:10065C00012B68D13E4B17221A603E4B64221A6064
:10066C003F4B01221A605EE000F00EFA00F022FA15
:10067C00384B1B68002B05D00020FFF78DFD03467F
:10068C00012B0DD1354B1B68324A1360324B1B6862
:10069C00334A13602E4B0D221A60324B0B221A6018
:1006AC000020FFF75FFD0346012B3ED1284B18229B
:1006BC001A60284B32221A60294B01221A6034E04E
:1006CC0000F0CCF900F0F6F9224B1B68002B05D09A
:1006DC000020FFF761FD0346012B10D1224B1B6854
:1006EC001C4A13601C4B1A681C4B1B68D31A1C4AFF
:1006FC001360174B0C221A601A4B0B221A60002045
:10070C00FFF730FD0346012B11D1114B15221A6056
:10071C00104B32221A60124B01221A6007E000BF04
:10072C0006E000BF04E000BF02E000BF00E000BF35
:10073C00074B1B68143B092B08D8064B1B68002B76
:10074C0004DD044B1B68013B024A136000BF80BDF3
:10075C002001002028010020640000206C000020F3
:10076C002C010020240100206800002080B500AF7F
:10077C008C4B1B681E3B092B19D90120FFF70CFD74
:10078C000346002B13D0884B0A221A60854B1F227C
:10079C001A60864B1F221A60854B02221A60854B09
:1007AC001B68854A136000F015F900F029F97D4BA0
:1007BC001B68212B00F08A80212B00F3DB801F2B80
:1007CC0002D0202B41D0D5E0774B1B68002B0AD1EF
:1007DC00754B0A221A601021784801F0CCFA80215E
:1007EC00764801F0C8FA0120FFF7D6FC0346012B2E
:1007FC000DD16C4B20221A606D4B03221A60704B8A
:10080C001B686D4A136000F0E5F800F0F9F8002061
:10081C00FFF7A8FC0346012B0BD1674B1B68013378
:10082C00654A1360644B1B68632B02DD624B01222B
:10083C001A600120FFF796FC0346012B40F09C80C8
:10084C005D4B1B685F4A136096E0574B1B68002B8F
:10085C000BD1554B0A221A602021584801F08BFA13
:10086C004FF48071554801F086FA0120FFF794FC93
:10087C000346012B0DD14B4B21221A604C4B042209
:10088C001A60514B1B684C4A136000F0A3F800F03F
:10089C00B7F80020FFF766FC0346012B0BD1464B43
:1008AC001B680133444A1360434B1B68632B02DD06
:1008BC00414B01221A600120FFF754FC0346012B27
:1008CC005CD13D4B1B68414A136057E0364B1B68AB
:1008DC00002B0BD1344B0A221A604021374801F00F
:1008EC004AFA4FF40071354801F045FA0120FFF740
:1008FC0053FC0346012B20D1354B1A68334B1B6834
:10090C001A44304B1B689A420BD12E4B1B68294A58
:10091C0013602E4B1B682A4A13602D4B1B682A4A06
:10092C001360204B00221A60204B00221A60204BCF
:10093C0000221A60204B00221A600020FFF712FCE4
:10094C000346012B0BD11C4B1B6801331A4A136055
:10095C00194B1B68632B02DD174B01221A60012017
:10096C00FFF700FC0346012B0AD1134B1B68184AF6
:10097C00136005E000BF04E000BF02E000BF00E030
:10098C0000BF084B1B681E3B092B08D8064B1B6885
:10099C00002B04DD044B1B68013B034A136000BFB2
:1009AC0080BD00BF20010020700000202401002029
:1009BC0028010020640000202C01002000080140C8
:1009CC0068000020140100206C0000201801002099
:1009DC001C01002080B500AF00221021074801F057
:1009EC00B2F900222021054801F0ADF90022402186
:1009FC00024801F0A8F900BF80BD00BF000801400B
:100A0C0080B500AF00228021084801F09CF900223B
:100A1C004FF48071054801F096F900224FF40071F3
:100A2C00024801F090F900BF80BD00BF00080140F2
:100A3C0080B500AF01221021074801F084F9002293
:100A4C002021054801F07FF900224021024801F0E5
:100A5C007AF900BF80BD00BF0008014080B500AF2F
:100A6C0000221021074801F06EF9012220210548CF
:100A7C0001F069F900224021024801F064F900BF3D
:100A8C0080BD00BF0008014080B500AF00221021DE
:100A9C00074801F058F900222021054801F053F9CC
:100AAC0001224021024801F04EF900BF80BD00BF79
:100ABC000008014080B500AF01228021084801F0F8
:100ACC0042F900224FF48071054801F03CF90022F4
:100ADC004FF40071024801F036F900BF80BD00BF31
:100AEC000008014080B500AF00228021084801F0C9
:100AFC002AF901224FF48071054801F024F90022F3
:100B0C004FF40071024801F01EF900BF80BD00BF18
:100B1C000008014080B500AF00228021084801F098
:100B2C0012F900224FF48071054801F00CF90122F2
:100B3C004FF40071024801F006F900BF80BD00BF00
:100B4C000008014080B500AFFFF710FEFFF71CFD59
:100B5C00FFF7D8FB00BF80BD80B500AF00F03EFDB5
:100B6C0000F02AF800F00CF900F094F800F064F8AA
:100B7C0000F0DCF80B4801F0BBFE01220A490B48DF
:100B8C0002F01DFB00F0CEF964220021084800F0B1
:100B9C0053FA0A220021074800F04EFA00F0FAFA44
:100BAC00FCE700BF8401002018020020CC010020CB
:100BBC00510B0008D901000880B590B000AF07F1C7
:100BCC00180328220021184603F0A8F83B1D002228
:100BDC001A605A609A60DA601A610223BB610123C1
:100BEC00BB621023FB6202237B630023BB630023E5
:100BFC00FB6307F11803184601F01AFA0346002BA1
:100C0C0001D000F089F90F237B600223BB60002325
:100C1C00FB604FF480633B6100237B613B1D002133
:100C2C00184601F087FC0346002B01D000F074F944
:100C3C0000BF4037BD4680BD80B500AF124B134A94
:100C4C001A60114B124A5A600F4B00229A600E4BDD
:100C5C000022DA600C4B4FF480421A610A4B0022DE
:100C6C005A61094B00229A61074B0022DA61064B4C
:100C7C0000221A62044801F097F80346002B01D0B9
:100C8C0000F04AF900BF80BD300100200054004044
:100C9C00A086010080B586B000AF07F108030022E2
:100CAC001A605A609A60DA603B4600221A605A60F9
:100CBC001D4B4FF080421A601B4B41F63F725A603D
:100CCC00194B00229A60184B0922DA60164B00224D
:100CDC001A61154B00229A61134801F0B9FD0346C5
:100CEC00002B01D000F018F94FF48053BB6007F1D2
:100CFC00080319460C4801F037FF0346002B01D0BE
:100D0C0000F00AF900233B6000237B603B46194648
:100D1C00054802F00FF90346002B01D000F0FCF857
:100D2C0000BF1837BD4680BD8401002080B500AFE0
:100D3C00114B124A1A60104B4FF4E1325A600E4BB1
:100D4C0000229A600C4B0022DA600B4B00221A61D5
:100D5C00094B0C225A61084B00229A61064B002267
:100D6C00DA61054802F050F90346002B01D000F07F
:100D7C00D3F800BF80BD00BFCC0100200044004070
:100D8C0080B586B000AF07F1080300221A605A60E4
:100D9C009A60DA601E4B9B691D4A43F00403936111
:100DAC001B4B9B6903F004037B607B68184B9B69AE
:100DBC00174A43F008039361154B9B6903F0080332
:100DCC003B603B68002240F2F231124800F0BBFF5E
:100DDC0040F2F233BB600123FB6000233B61022332
:100DEC007B6107F1080319460A4800F019FE4FF41D
:100DFC004063BB600023FB6001233B6107F10803E8
:100E0C001946044800F00CFE00BF1837BD4680BDE3
:100E1C00001002400008014080B582B000AF78603D
:100E2C0000F09AF800BF0837BD4680BD80B588B089
:100E3C0000AF78607B681B682E4A934256D12E4BCC
:100E4C001B78002B0CD10023FB7706E0FB7F2B4A91
:100E5C000021D154FB7F0133FB77FB7F632BF5D94A
:100E6C00274B1B780D2B0BD0234B1B785A1CD1B264
:100E7C00214A11701A46224B1978204B995426E0BE
:100E8C001D4B00221A701F4B01221A706423022280
:100E9C001D491E4802F008F91D491848FFF750F982
:100EAC000346002B0DD107F108031846FFF752F942
:100EBC0003469AB207F108016423144802F0F4F8CF
:100ECC0005E064230E221349104802F0EDF80122CC
:100EDC000B490E4802F073F90948FFF73BF903463A
:100EEC009AB264230649094802F0DEF800BF2037A5
:100EFC00BD4680BD004400401402002020020020AA
:100F0C0018020020840200207C460008CC0100203E
:100F1C00804600088C46000880B400AF72B600BF53
:100F2C0000BFFDE780B582B000AF0023FB7106E087
:100F3C00FB79184600F0E6F8FB790133FB71FB797D
:100F4C00272BF5D9034B00221A7000BF0837BD467A
:100F5C0080BD00BFA805002080B483B000AF002383
:100F6C007B605DE033497A6813469B0013449B0019
:100F7C000B441B68002B50D02E497A6813469B00FB
:100F8C0013449B000B4404331B68002B32D12949BA
:100F9C007A6813469B0013449B000B440C331B785C
:100FAC000133D8B223497A6813469B0013449B0043
:100FBC000B440C3302461A701E497A6813469B0088
:100FCC0013449B000B4408331B68002B25D0194994
:100FDC007A6813469B0013449B000B440833196832
:100FEC0014487A6813469B0013449B000344043353
:100FFC00196012E00F497A6813469B0013449B005A
:10100C000B4404331B68591E0A487A6813469B002C
:10101C0013449B000344043319607B6801337B60E9
:10102C007B68272B9ED900BF00BF0C37BD4680BC08
:10103C00704700BF8802002080B487B000AFF86012
:10104C00B9607A6000237B6102E07B6901337B61CC
:10105C0029497A6913469B0013449B000B441B6877
:10106C00002B02D07B69272BEFD97B69282B04D16D
:10107C00224B01221A70282339E01F497A69134642
:10108C009B0013449B000B44FA681A60BB681C4A13
:10109C00A2FB0323D90818487A6913469B00134412
:1010AC009B000344043319607B68154AA2FB03239D
:1010BC00D90811487A6913469B0013449B000344DA
:1010CC00083319600C497A6913469B0013449B0042
:1010DC000B440C3300221A7007497A6913469B00A3
:1010EC0013449B000B4410337A691A607B691846D1
:1010FC001C37BD4680BC704788020020A805002024
:10110C00CDCCCCCC80B485B000AF78601F497A6868
:10111C0013469B0013449B000B441B68002B05D10A
:10112C001B4B08221A70FF23FB7301E00023FB7397
:10113C0016497A6813469B0013449B000B4400220B
:10114C001A6012497A6813469B0013449B000B44A7
:10115C00043300221A600D497A6813469B0013442D
:10116C009B000B44083300221A6008497A68134626
:10117C009B0013449B000B440C3300221A70FB7B26
:10118C0018461437BD4680BC704700BF880200204B
:10119C00A805002080B582B000AF0023FB7139E0B8
:1011AC00FA79214913469B0013449B000B440C33E2
:1011BC001B78002B2BD0FA791B4913469B00134448
:1011CC009B000B441B689847FA79174913469B0000
:1011DC0013449B000B440C331B78013BD8B21249CF
:1011EC0013469B0013449B000B440C3302461A70AD
:1011FC00FA790D4913469B0013449B000B440833AA
:10120C001B68002B03D1FB791846FFF77BFFFB799A
:10121C000133FB71FB79272BC2D900F007F800BF13
:10122C000837BD4680BD00BF8802002080B400AFE7
:10123C00184B1A78184B1B789A4216D0154B1B7802
:10124C00DB43DAB2154B1A70124B1A78124B1A7028
:10125C00104B1B78002B04D0114B4EF660221A60F9
:10126C0013E00F4B00221A600FE00D4B1B68002B94
:10127C000BD00B4B1B68013B094A1360084B1B68D6
:10128C00002B02D1034B00221A7000BFBD4680BC5C
:10129C00704700BFA8050020AA050020A905002062
:1012AC00AC05002080B485B000AF154B9B69144A87
:1012BC0043F001039361124B9B6903F00103BB6084
:1012CC00BB680F4BDB690E4A43F08053D3610C4B68
:1012DC00DB6903F080537B607B680A4B5B68FB60C7
:1012EC00FB6823F0E063FB60FB6843F08063FB600A
:1012FC00044AFB68536000BF1437BD4680BC70477E
:10130C00001002400000014080B58AB000AF786048
:10131C0007F1140300221A605A609A60DA607B6845
:10132C001B681E4A934234D11D4B9B691C4A43F0E7
:10133C00080393611A4B9B6903F008033B613B69FB
:10134C004FF440737B611223BB610023FB610323C9
:10135C003B6207F114031946124800F061FB124B73
:10136C005B687B627B6A43F0E0637B627B6A43F081
:10137C0002037B620C4A7B6A5360094BDB69084AA7
:10138C0043F40013D361064BDB6903F40013FB60D9
:10139C00FB6800BF2837BD4680BD00BF005400402D
:1013AC0000100240000C01400000014080B584B0E8
:1013BC0000AF78607B681B68B3F1804F13D10C4B86
:1013CC00DB690B4A43F00103D361094BDB6903F082
:1013DC000103FB60FB68002200211C2000F037FA9F
:1013EC001C2000F050FA00BF1037BD4680BD00BF76
:1013FC000010024080B588B000AF786007F1100390
:10140C0000221A605A609A60DA607B681B681F4A77
:10141C00934237D11E4BDB691D4A43F40033D36131
:10142C001B4BDB6903F40033FB60FB68184B9B69B7
:10143C00174A43F004039361154B9B6903F00403B3
:10144C00BB60BB6804233B6102237B610323FB610C
:10145C0007F1100319460F4800F0E2FA08233B612C
:10146C0000237B610023BB6107F110031946094877
:10147C0000F0D6FA00220021262000F0E8F9262000
:10148C0000F001FA00BF2037BD4680BD004400408B
:10149C00001002400008014080B400AF00BFFDE71F
:1014AC0080B400AF00BFFDE780B400AF00BFFDE724
:1014BC0080B400AF00BFFDE780B400AF00BFFDE714
:1014CC0080B400AF00BFBD4680BC704780B400AF95
:1014DC0000BFBD4680BC704780B400AF00BFBD46A6
:1014EC0080BC704780B500AF00F0BEF800BF80BD77
:1014FC0080B500AF024801F047FA00BF80BD00BFC5
:10150C008401002080B500AF024801F07DFE00BFD1
:10151C0080BD00BFCC01002080B586B000AF7860E4
:10152C00144A154BD31A7B617B693B61134B1B68C7
:10153C00002B02D1114B124A1A60104B1A687B68AF
:10154C0013443A699A4207D202F0F0FB03460C228C
:10155C001A604FF0FF3309E0084B1B68FB60074B28
:10156C001A687B681344054A1360FB6818461837E1
:10157C00BD4680BD0028002000040000B0050020FE
:10158C000007002080B400AF00BFBD4680BC704790
:10159C00FFF7F8FF0B480C490C4A002302E0D45823
:1015AC00C4500433C4188C42F9D3094A094C0023A3
:1015BC0001E013600432A242FBD302F0BDFBFFF743
:1015CC00CBFA704700000020D00000200C47000828
:1015DC00D000002000070020FEE7000080B500AF1F
:1015EC00084B1B68074A43F010031360032000F0FC
:1015FC0023F90F2000F008F8FFF754FE00231846DB
:10160C0080BD00BF0020024080B582B000AF786082
:10161C00124B1A68124B1B7819464FF47A73B3FBB2
:10162C00F1F3B2FBF3F3184600F03BF90346002B41
:10163C0001D001230EE07B680F2B0AD800227968B9
:10164C004FF0FF3000F003F9064A7B68136000236B
:10165C0000E0012318460837BD4680BD7400002009
:10166C007C0000207800002080B400AF054B1B7874
:10167C001A46054B1B681344034A136000BFBD4652
:10168C0080BC70477C000020B405002080B400AF03
:10169C00024B1B681846BD4680BC7047B405002041
:1016AC0080B485B000AF78607B6803F00703FB6003
:1016BC000C4BDB68BB60BA684FF6FF031340BB6092
:1016CC00FB681A02BB68134343F0BF6343F4003357
:1016DC00BB60044ABB68D36000BF1437BD4680BCF6
:1016EC00704700BF00ED00E080B400AF044BDB6836
:1016FC001B0A03F007031846BD4680BC704700BFA9
:10170C0000ED00E080B483B000AF0346FB7197F9A5
:10171C000730002B0BDBFB7903F01F02064997F90E
:10172C0007305B09012000FA02F241F8232000BFC8
:10173C000C37BD4680BC704700E100E080B483B03C
:10174C0000AF03463960FB7197F90730002B0ADBB9
:10175C003B68DAB20C4997F907301201D2B20B444C
:10176C0083F800230AE03B68DAB20849FB7903F0FE
:10177C000F03043B1201D2B20B441A7600BF0C3794
:10178C00BD4680BC704700BF00E100E000ED00E00A
:10179C0080B489B000AFF860B9607A60FB6803F080
:1017AC000703FB61FB69C3F10703042B28BF042368
:1017BC00BB61FB690433062B02D9FB69033B00E0D8
:1017CC0000237B614FF0FF32BB6902FA03F3DA436B
:1017DC00BB681A407B699A404FF0FF317B6901FA74
:1017EC0003F3D9437B680B40134318462437BD469B
:1017FC0080BC704780B582B000AF78607B68013BDD
:10180C00B3F1807F01D301230FE00A4A7B68013BCF
:10181C0053600F214FF0FF30FFF790FF054B002274
:10182C009A60044B07221A60002318460837BD46FD
:10183C0080BD00BF10E000E080B582B000AF7860E2
:10184C007868FFF72DFF00BF0837BD4680BD80B517
:10185C0086B000AF0346B9607A60FB7300237B61EE
:10186C00FFF742FF78617A68B9687869FFF790FFF3
:10187C00024697F90F3011461846FFF75FFF00BF7D
:10188C001837BD4680BD80B582B000AF0346FB71F2
:10189C0097F907301846FFF735FF00BF0837BD46EC
:1018AC0080BD80B582B000AF78607868FFF7A2FF8A
:1018BC00034618460837BD4680BD80B485B000AFDE
:1018CC0078600023FB737B6893F82130DBB2022B2A
:1018DC0008D07B6804229A637B68002283F820205E
:1018EC00012320E07B681B681A687B681B6822F068
:1018FC000E021A607B681B681A687B681B6822F0F2
:10190C0001021A607B681A6C7B68DB6B012101FA9F
:10191C0002F25A607B68012283F821207B68002246
:10192C0083F82020FB7B18461437BD4680BC7047DB
:10193C0080B584B000AF78600023FB737B6893F8AC
:10194C002130DBB2022B05D07B6804229A63012381
:10195C00FB7351E07B681B681A687B681B6822F07C
:10196C000E021A607B681B681A687B681B6822F081
:10197C0001021A607B681B68224A934229D07B685B
:10198C001B68214A934222D07B681B681F4A9342F2
:10199C001AD07B681B681E4A934212D07B681B6866
:1019AC001C4A93420AD07B681B681B4A934202D1A3
:1019BC004FF480130EE04FF080730BE04FF4803344
:1019CC0008E04FF4805305E04FF4807302E01023DD
:1019DC0000E00123114A53607B68012283F8212027
:1019EC007B68002283F820207B685B6B002B03D084
:1019FC007B685B6B78689847FB7B18461037BD4655
:101A0C0080BD00BF080002401C00024030000240B4
:101A1C0044000240580002406C00024000000240AA
:101A2C0080B48BB000AF7860396000237B620023F8
:101A3C003B6261E101227B6A02FA03F3FB613B68C2
:101A4C001B68FA691340BB61BA69FB699A4240F0A2
:101A5C0050813B685B68974A93425ED0954A9342AB
:101A6C0075D8954A934258D0934A93426FD8934A6B
:101A7C00934252D0914A934269D8914A93424CD0A6
:101A8C008F4A934263D88F4A934246D08D4A9342F1
:101A9C005DD8122B2AD8122B59D801A252F823F058
:101AAC00271B0008011B0008131B0008551B00080E
:101ABC005B1B00085B1B00085B1B00085B1B000822
:101ACC005B1B00085B1B00085B1B00085B1B000812
:101ADC005B1B00085B1B00085B1B00085B1B000802
:101AEC005B1B0008091B00081D1B0008764A93426B
:101AFC0013D02CE03B68DB683B6229E03B68DB6879
:101B0C0004333B6224E03B68DB6808333B621FE034
:101B1C003B68DB680C333B621AE03B689B68002B2C
:101B2C0002D104233B6213E03B689B68012B05D177
:101B3C0008233B627B68FA691A6109E008233B625F
:101B4C007B68FA695A6103E000233B6200E000BF46
:101B5C00BB69FF2B01D87B6801E07B6804337B6198
:101B6C00BB69FF2B02D87B6A9B0002E07B6A083BB7
:101B7C009B003B617B691A680F213B6901FA03F3F7
:101B8C00DB431A40396A3B6901FA03F31A437B6958
:101B9C001A603B685B6803F08053002B00F0A9804F
:101BAC004A4B9B69494A43F001039361474B9B693C
:101BBC0003F00103BB60BB68454A7B6A9B08023398
:101BCC0052F82330FB607B6A03F003039B000F2267
:101BDC0002FA03F3DB43FA681340FB607B683D4A6F
:101BEC0093420DD07B683C4A934207D07B683B4ABA
:101BFC00934201D1022304E0032302E0012300E01D
:101C0C0000237A6A02F0030292009340FA681343AD
:101C1C00FB602F497B6A9B080233FA6841F823204A
:101C2C003B685B6803F48013002B06D02C4B9A683E
:101C3C002B49BB6913438B6006E0294B9A68BB693F
:101C4C00DB43274913408B603B685B6803F400134C
:101C5C00002B06D0224BDA682149BB691343CB60B9
:101C6C0006E01F4BDA68BB69DB431D491340CB60B0
:101C7C003B685B6803F40033002B06D0184B5A68A2
:101C8C001749BB6913434B6006E0154B5A68BB6997
:101C9C00DB43134913404B603B685B6803F48033B0
:101CAC00002B1FD00E4B1A680D49BB6913430B60F8
:101CBC001FE000BF000032100000311000002210A5
:101CCC000000211000001210000011100010024042
:101CDC000000014000080140000C014000100140D0
:101CEC00000401400B4B1A68BB69DB4309491340E4
:101CFC000B607B6A01337B623B681A687B6A22FA51
:101D0C0003F3002B7FF496AE00BF00BF2C37BD460B
:101D1C0080BC70470004014080B485B000AF78608F
:101D2C000B467B807B689A687B881340002B02D023
:101D3C000123FB7301E00023FB73FB7B1846143774
:101D4C00BD4680BC704780B483B000AF78600B4652
:101D5C007B8013467B707B78002B03D07A887B6862
:101D6C001A6103E07B881A047B681A6100BF0C3788
:101D7C00BD4680BC704780B485B000AF78600B4620
:101D8C007B807B68DB68FB607A88FB6813401A04F5
:101D9C00FB68D9437B880B401A437B681A6100BFF0
:101DAC001437BD4680BC704780B584B000AF7860F6
:101DBC007B68002B01D101232BE17B6893F83D302C
:101DCC00DBB2002B06D17B68002283F83C207868BC
:101DDC00FFF79AFA7B68242283F83D207B681B6806
:101DEC001A687B681B6822F001021A607B681B680A
:101DFC001A687B681B6842F400421A607B681B6897
:101E0C001A687B681B6822F400421A6000F0DAFC46
:101E1C00F8607B685B68814A934207D8FB68804A0C
:101E2C00934294BF01230023DBB206E0FB687D4A9A
:101E3C00934294BF01230023DBB2002B01D001237A
:101E4C00E7E0FB68784AA2FB03239B0CBB607B6832
:101E5C001B685B6823F03F017B681B68BA680A4308
:101E6C005A607B681B681B6A23F03F017B685B68C8
:101E7C006A4A934202D8BB68013309E0BB684FF44D
:101E8C00967202FB03F3694AA2FB03239B090133FD
:101E9C007A6812680B4313627B681B68DB6923F456
:101EAC004F4222F0FF027B685B685C498B4219D879
:101EBC00FB68591E7B685B685B00B1FBF3F3591C34
:101ECC0040F6FC730B40002B0AD0FB68591E7B6854
:101EDC005B685B00B1FBF3F30133C3F30B0351E01D
:101EEC0004234FE07B689B68002B11D1FB68581EC4
:101EFC007B6859680B465B000B44B0FBF3F3013372
:101F0C00C3F30B03002B0CBF01230023DBB212E045
:101F1C00FB68581E7B6859680B469B000B44990064
:101F2C000B44B0FBF3F30133C3F30B03002B0CBFD7
:101F3C0001230023DBB2002B01D0012322E07B68BC
:101F4C009B68002B0ED1FB68581E7B6859680B46AA
:101F5C005B000B44B0FBF3F30133C3F30B0343F40B
:101F6C0000430FE0FB68581E7B6859680B469B00CA
:101F7C000B4499000B44B0FBF3F30133C3F30B0395
:101F8C0043F44043796809681343CB617B681B6851
:101F9C001B6823F0C0017B68DA697B681B6A1A43F3
:101FAC007B681B680A431A607B681B689B6823F478
:101FBC00034323F0FF037A6811697A68D2681143EE
:101FCC007A6812680B4393607B681B68DB6823F0AC
:101FDC00FF017B685A697B689B691A437B681B68A5
:101FEC000A43DA607B681B681A687B681B6842F0DE
:101FFC0001021A607B6800221A647B68202283F835
:10200C003D207B6800221A637B68002283F83E2007
:10201C00002318461037BD4680BD00BFA0860100C6
:10202C007F841E00FF083D0083DE1B43D34D6210EE
:10203C0080B586B000AF78607B68002B01D101239E
:10204C0072E27B681B6803F00103002B00F08780B1
:10205C00924B5B6803F00C03042B0CD08F4B5B682A
:10206C0003F00C03082B12D18C4B5B6803F4803308
:10207C00B3F5803F0BD1894B1B6803F40033002B65
:10208C006CD07B685B68002B68D101234CE27B68C9
:10209C005B68B3F5803F06D1804B1B687F4A43F4E5
:1020AC00803313602EE07B685B68002B0CD17B4B7C
:1020BC001B687A4A23F480331360784B1B68774A89
:1020CC0023F4802313601DE07B685B68B3F5A02FBD
:1020DC000CD1724B1B68714A43F4802313606F4B15
:1020EC001B686E4A43F4803313600BE06B4B1B6828
:1020FC006A4A23F480331360684B1B68674A23F4E5
:10210C00802313607B685B68002B13D0FFF7BEFA4B
:10211C00386108E0FFF7BAFA02463B69D31A642B20
:10212C0001D9032300E25D4B1B6803F40033002B41
:10213C00F0D014E0FFF7AAFA386108E0FFF7A6FA2E
:10214C0002463B69D31A642B01D90323ECE1534BB0
:10215C001B6803F40033002BF0D100E000BF7B6858
:10216C001B6803F00203002B63D04C4B5B6803F03D
:10217C000C03002B0BD0494B5B6803F00C03082BB2
:10218C001CD1464B5B6803F48033002B16D1434BB8
:10219C001B6803F00203002B05D07B681B69012B25
:1021AC0001D00123C0E13D4B1B6823F0F8027B6892
:1021BC005B69DB00394913430B603AE07B681B69B0
:1021CC00002B20D0364B01221A60FFF75FFA3861E2
:1021DC0008E0FFF75BFA02463B69D31A022B01D9E0
:1021EC000323A1E12D4B1B6803F00203002BF0D05D
:1021FC002A4B1B6823F0F8027B685B69DB002749DC
:10220C0013430B6015E0264B00221A60FFF73EFAD1
:10221C00386108E0FFF73AFA02463B69D31A022B01
:10222C0001D9032380E11D4B1B6803F00203002B33
:10223C00F0D17B681B6803F00803002B3AD07B6855
:10224C009B69002B19D0174B01221A60FFF71EFA5D
:10225C00386108E0FFF71AFA02463B69D31A022BE1
:10226C0001D9032360E10D4B5B6A03F00203002BE1
:10227C00F0D0012000F0CEFA1CE00A4B00221A60CC
:10228C00FFF704FA38610FE0FFF700FA02463B69EA
:10229C00D31A022B08D9032346E100BF00100240D9
:1022AC000000424280044242924B5B6A03F00203FC
:1022BC00002BE9D17B681B6803F00403002B00F0B2
:1022CC00A6800023FB758B4BDB6903F08053002B3E
:1022DC000DD1884BDB69874A43F08053D361854B22
:1022EC00DB6903F08053BB60BB680123FB75824B39
:1022FC001B6803F48073002B18D17F4B1B687E4A3C
:10230C0043F480731360FFF7C1F9386108E0FFF7FD
:10231C00BDF902463B69D31A642B01D9032303E1AF
:10232C00754B1B6803F48073002BF0D07B68DB6863
:10233C00012B06D16F4B1B6A6E4A43F001031362EB
:10234C002DE07B68DB68002B0CD16A4B1B6A694A59
:10235C0023F001031362674B1B6A664A23F00403E4
:10236C0013621CE07B68DB68052B0CD1614B1B6A8C
:10237C00604A43F0040313625E4B1B6A5D4A43F0F0
:10238C00010313620BE05B4B1B6A5A4A23F00103F7
:10239C001362584B1B6A574A23F0040313627B6881
:1023AC00DB68002B15D0FFF771F938610AE0FFF7F5
:1023BC006DF902463B69D31A41F28832934201D936
:1023CC000323B1E04B4B1B6A03F00203002BEED04E
:1023DC0014E0FFF75BF938610AE0FFF757F90246A2
:1023EC003B69D31A41F28832934201D903239BE013
:1023FC00404B1B6A03F00203002BEED1FB7D012B3B
:10240C0005D13C4BDB693B4A23F08053D3617B689D
:10241C00DB69002B00F08780364B5B6803F00C0304
:10242C00082B61D07B68DB69022B46D1334B002231
:10243C001A60FFF72BF9386108E0FFF727F902461D
:10244C003B69D31A022B01D903236DE0294B1B687E
:10245C0003F00073002BF0D17B681B6AB3F5803F4F
:10246C0008D1244B5B6823F400327B689B682149BC
:10247C0013434B601F4B5B6823F474127B68196A1F
:10248C007B685B6A0B431B4913434B601B4B01225C
:10249C001A60FFF7FBF8386108E0FFF7F7F802461F
:1024AC003B69D31A022B01D903233DE0114B1B6866
:1024BC0003F00073002BF0D035E0104B00221A60B3
:1024CC00FFF7E4F8386108E0FFF7E0F802463B69F3
:1024DC00D31A022B01D9032326E0064B1B6803F009
:1024EC000073002BF0D11EE07B68DB69012B07D158
:1024FC00012319E0001002400070004060004242CD
:10250C000B4B5B68FB60FB6803F480327B681B6AD7
:10251C009A4206D1FB6803F470127B685B6A9A429C
:10252C0001D0012300E0002318461837BD4680BDBA
:10253C000010024080B584B000AF786039607B68D1
:10254C00002B01D10123D0E06A4B1B6803F0070379
:10255C003A689A4210D9674B1B6823F00702654909
:10256C003B6813430B60634B1B6803F007033A682B
:10257C009A4201D00123B8E07B681B6803F0020388
:10258C00002B20D07B681B6803F00403002B05D0C4
:10259C00594B5B68584A43F4E06353607B681B6893
:1025AC0003F00803002B05D0534B5B68524A43F4ED
:1025BC0060535360504B5B6823F0F0027B689B6860
:1025CC004D4913434B607B681B6803F00103002BE0
:1025DC0040D07B685B68012B07D1474B1B6803F429
:1025EC000033002B15D101237FE07B685B68022B45
:1025FC0007D1414B1B6803F00073002B09D1012359
:10260C0073E03D4B1B6803F00203002B01D1012347
:10261C006BE0394B5B6823F003027B685B683649DF
:10262C0013434B60FFF732F8F8600AE0FFF72EF81F
:10263C000246FB68D31A41F28832934201D9032334
:10264C0053E02D4B5B6803F00C027B685B689B00CE
:10265C009A42EBD1274B1B6803F007033A689A4266
:10266C0010D2244B1B6823F0070222493B6813430A
:10267C000B60204B1B6803F007033A689A4201D0A9
:10268C00012332E07B681B6803F00403002B08D0A5
:10269C00194B5B6823F4E0627B68DB6816491343D3
:1026AC004B607B681B6803F00803002B09D0124BAE
:1026BC005B6823F460527B681B69DB000E49134393
:1026CC004B6000F021F802460B4B5B681B0903F0D2
:1026DC000F030A49CB5C22FA03F3094A1360094B36
:1026EC001B681846FEF790FF002318461037BD46AE
:1026FC0080BD00BF00200240001002409C46000834
:10270C00740000207800002080B487B000AF002354
:10271C00FB600023BB6000237B6100237B600023F4
:10272C003B611E4B5B68FB60FB6803F00C03042BE6
:10273C0002D0082B03D027E0194B3B6127E0FB6844
:10274C009B0C03F00F03174AD35C7B60FB6803F40C
:10275C008033002B10D0114B5B685B0C03F0010332
:10276C00114AD35CBB607B680D4A03FB02F2BB6869
:10277C00B2FBF3F37B6104E07B680C4A02FB03F3CE
:10278C007B617B693B6102E0054B3B6100BF3B69B0
:10279C0018461C37BD4680BC704700BF0010024075
:1027AC0000127A00B4460008C446000800093D0037
:1027BC0080B400AF024B1B681846BD4680BC704706
:1027CC007400002080B500AFFFF7F2FF0246054B06
:1027DC005B681B0A03F007030349CB5C22FA03F383
:1027EC00184680BD00100240AC46000880B500AF12
:1027FC00FFF7DEFF0246054B5B68DB0A03F00703BD
:10280C000349CB5C22FA03F3184680BD001002404A
:10281C00AC46000880B485B000AF78600A4B1B68EA
:10282C000A4AA2FB03235B0A7A6802FB03F3FB60F0
:10283C0000BFFB685A1EFA60002BF9D100BF00BF25
:10284C001437BD4680BC704774000020D34D621015
:10285C0080B582B000AF78607B68002B01D101237A
:10286C0041E07B6893F83D30DBB2002B06D17B68EE
:10287C00002283F83C207868FEF798FD7B680222E2
:10288C0083F83D207B681A687B6804331946104630
:10289C0000F056FA7B68012283F846207B680122FF
:1028AC0083F83E207B68012283F83F207B6801225D
:1028BC0083F840207B68012283F841207B68012249
:1028CC0083F842207B68012283F843207B68012235
:1028DC0083F844207B68012283F845207B68012221
:1028EC0083F83D20002318460837BD4680BD000004
:1028FC0080B485B000AF78607B6893F83D30DBB274
:10290C00012B01D0012335E07B68022283F83D20A6
:10291C007B681B68DA687B681B6842F00102DA602E
:10292C007B681B68164A934209D07B681B68B3F11D
:10293C00804F04D07B681B68124A934211D17B688C
:10294C001B689B6803F00703FB60FB68062B10D029
:10295C007B681B681A687B681B6842F001021A606E
:10296C0007E07B681B681A687B681B6842F00102F1
:10297C001A60002318461437BD4680BC704700BF50
:10298C00002C01400004004080B584B000AF78609A
:10299C007B681B68DB68FB607B681B681B69BB6022
:1029AC00BB6803F00203002B20D0FB6803F002038A
:1029BC00002B1BD07B681B686FF002021A617B68CE
:1029CC0001221A777B681B689B6903F00303002BB9
:1029DC0003D0786800F098F905E0786800F08BF97E
:1029EC00786800F09AF97B6800221A77BB6803F0CC
:1029FC000403002B20D0FB6803F00403002B1BD036
:102A0C007B681B686FF004021A617B6802221A77DC
:102A1C007B681B689B6903F44073002B03D07868B8
:102A2C0000F072F905E0786800F065F9786800F05C
:102A3C0074F97B6800221A77BB6803F00803002B3B
:102A4C0020D0FB6803F00803002B1BD07B681B68AD
:102A5C006FF008021A617B6804221A777B681B6886
:102A6C00DB6903F00303002B03D0786800F04CF90A
:102A7C0005E0786800F03FF9786800F04EF97B6863
:102A8C0000221A77BB6803F01003002B20D0FB68E0
:102A9C0003F01003002B1BD07B681B686FF0100237
:102AAC001A617B6808221A777B681B68DB6903F460
:102ABC004073002B03D0786800F026F905E07868A5
:102ACC0000F019F9786800F028F97B6800221A7771
:102ADC00BB6803F00103002B0CD0FB6803F001036F
:102AEC00002B07D07B681B686FF001021A617868B5
:102AFC00FEF792F9BB6803F08003002B0CD0FB6847
:102B0C0003F08003002B07D07B681B686FF08002FA
:102B1C001A61786800F06FFABB6803F04003002B71
:102B2C000CD0FB6803F04003002B07D07B681B68BC
:102B3C006FF040021A61786800F0F8F8BB6803F097
:102B4C002003002B0CD0FB6803F02003002B07D0D4
:102B5C007B681B686FF020021A61786800F042FAFB
:102B6C0000BF1037BD4680BD80B584B000AF786023
:102B7C0039600023FB737B6893F83C30012B01D147
:102B8C000223B4E07B68012283F83C207B6802229C
:102B9C0083F83D207B681B689B68BB60BB6823F097
:102BAC007703BB60BB6823F47F43BB607B681B6807
:102BBC00BA689A603B681B68B3F5005F3ED0B3F50A
:102BCC00005F00F28780B3F5805F00F08680B3F57C
:102BDC00805F7FD8702B1AD0702B7BD8602B50D095
:102BEC00602B77D8502B3CD0502B73D8402B58D01F
:102BFC00402B6FD8302B64D0302B6BD8202B60D06F
:102C0C00202B67D8002B5CD0102B5AD062E07B684D
:102C1C0018683B6899683B685A683B68DB6800F049
:102C2C006AF97B681B689B68BB60BB6843F07703E1
:102C3C00BB607B681B68BA689A604FE07B68186859
:102C4C003B6899683B685A683B68DB6800F053F94D
:102C5C007B681B689A687B681B6842F480429A60A8
:102C6C003CE07B6818683B6859683B68DB681A462F
:102C7C0000F0CAF87B681B685021184600F021F957
:102C8C002CE07B6818683B6859683B68DB681A461F
:102C9C0000F0E8F87B681B686021184600F011F919
:102CAC001CE07B6818683B6859683B68DB681A460F
:102CBC0000F0AAF87B681B684021184600F001F967
:102CCC000CE07B681A683B681B681946104600F0DC
:102CDC00F8F803E00123FB7300E000BF7B680122DE
:102CEC0083F83D207B68002283F83C20FB7B184650
:102CFC001037BD4680BD80B483B000AF786000BF94
:102D0C000C37BD4680BC704780B483B000AF786090
:102D1C0000BF0C37BD4680BC704780B483B000AF99
:102D2C00786000BF0C37BD4680BC704780B483B060
:102D3C0000AF786000BF0C37BD4680BC7047000008
:102D4C0080B485B000AF786039607B681B68FB602D
:102D5C007B682B4A934207D07B68B3F1804F03D03A
:102D6C007B68284A934208D1FB6823F07003FB6010
:102D7C003B685B68FA681343FB607B68204A9342AC
:102D8C0007D07B68B3F1804F03D07B681D4A934218
:102D9C0008D1FB6823F44073FB603B68DB68FA687E
:102DAC001343FB60FB6823F080023B685B691343B1
:102DBC00FB607B68FA681A603B689A687B68DA6229
:102DCC003B681A687B689A627B680D4A934203D110
:102DDC003B681A697B681A637B6801225A617B68BD
:102DEC001B6903F00103002B05D07B681B6923F0E2
:102DFC0001027B681A6100BF1437BD4680BC704766
:102E0C00002C01400004004080B487B000AFF86093
:102E1C00B9607A60FB681B6A7B61FB681B6A23F0F4
:102E2C000102FB681A62FB689B693B613B6923F0FA
:102E3C00F0033B617B681B013A6913433B617B697F
:102E4C0023F00A037B617A69BB6813437B61FB68DF
:102E5C003A699A61FB687A691A6200BF1C37BD46F1
:102E6C0080BC704780B487B000AFF860B9607A60FE
:102E7C00FB681B6A7B61FB681B6A23F01002FB6812
:102E8C001A62FB689B693B613B6923F470433B61AD
:102E9C007B681B033A6913433B617B6923F0A003F6
:102EAC007B61BB681B017A6913437B61FB683A69E0
:102EBC009A61FB687A691A6200BF1C37BD4680BCF8
:102ECC00704780B485B000AF786039607B689B68D0
:102EDC00FB60FB6823F07003FB603A68FB681343EC
:102EEC0043F00703FB607B68FA689A6000BF1437F5
:102EFC00BD4680BC704780B487B000AFF860B96045
:102F0C007A603B60FB689B687B617B6923F47F4341
:102F1C007B613B681A027B681A43BB6813437A696E
:102F2C0013437B61FB687A699A6000BF1C37BD460E
:102F3C0080BC704780B485B000AF786039607B6826
:102F4C0093F83C30012B01D1022341E07B68012234
:102F5C0083F83C207B68022283F83D207B681B6849
:102F6C005B68FB607B681B689B68BB60FB6823F03D
:102F7C007003FB603B681B68FA681343FB607B685B
:102F8C001B68FA685A607B681B68144A934209D024
:102F9C007B681B68B3F1804F04D07B681B68104AB8
:102FAC0093420CD1BB6823F08003BB603B685B6829
:102FBC00BA681343BB607B681B68BA689A607B680D
:102FCC00012283F83D207B68002283F83C200023FB
:102FDC0018461437BD4680BC704700BF002C01401A
:102FEC000004004080B483B000AF786000BF0C37A1
:102FFC00BD4680BC704780B483B000AF786000BF22
:10300C000C37BD4680BC704780B582B000AF78608D
:10301C007B68002B01D1012342E07B6893F841309F
:10302C00DBB2002B06D17B68002283F84020786845
:10303C00FEF7E0F97B68242283F841207B681B684B
:10304C00DA687B681B6822F40052DA60786800F05A
:10305C00B7FD7B681B681A697B681B6822F4904279
:10306C001A617B681B685A697B681B6822F02A020C
:10307C005A617B681B68DA687B681B6842F40052F3
:10308C00DA607B6800225A647B68202283F8412036
:10309C007B68202283F842207B6800225A6300233D
:1030AC0018460837BD4680BD80B58AB002AFF860BF
:1030BC00B9603B601346FB8000237B61FB6893F88F
:1030CC004130DBB2202B75D1BB68002B02D0FB88C2
:1030DC00002B01D101236EE0FB6800225A64FB68CF
:1030EC00212283F84120FEF7D1FA7861FB68FA8837
:1030FC009A84FB68FA88DA84FB689B68B3F5805F76
:10310C0008D1FB681B69002B04D10023FB61BB6851
:10311C00BB6103E0BB68FB610023BB612EE03B6835
:10312C0000937B6900228021F86800F01CFB0346A9
:10313C00002B05D0FB68202283F8412003233AE0C2
:10314C00FB69002B0BD1BB691B881A46FB681B68FB
:10315C00C2F308025A60BB690233BB6107E0FB692A
:10316C001A78FB681B685A60FB690133FB61FB68CA
:10317C00DB8C9BB2013B9AB2FB68DA84FB68DB8C7C
:10318C009BB2002BCBD13B6800937B690022402182
:10319C00F86800F0E8FA0346002B05D0FB68202203
:1031AC0083F84120032306E0FB68202283F84120AA
:1031BC00002300E0022318462037BD4680BD80B5B1
:1031CC0084B000AFF860B9601346FB80FB6893F8DD
:1031DC004230DBB2202B12D1BB68002B02D0FB8813
:1031EC00002B01D101230BE0FB6800221A63FB8842
:1031FC001A46B968F86800F00FFB034600E002239A
:10320C0018461037BD4680BD80B5BAB000AF7860A7
:10321C007B681B681B68C7F8E4307B681B68DB683D
:10322C00C7F8E0307B681B685B69C7F8DC300023AB
:10323C00C7F8D8300023C7F8D430D7F8E43003F0FF
:10324C000F03C7F8D830D7F8D830002B0FD1D7F8E8
:10325C00E43003F02003002B09D0D7F8E03003F062
:10326C002003002B03D0786800F0ECFB5BE2D7F86E
:10327C00D830002B00F0DE80D7F8DC3003F00103EF
:10328C00002B06D1D7F8E03003F49073002B00F03C
:10329C00D180D7F8E43003F00103002B0BD0D7F822
:1032AC00E03003F48073002B05D07B685B6C43F03B
:1032BC0001027B685A64D7F8E43003F00403002B56
:1032CC000BD0D7F8DC3003F00103002B05D07B6862
:1032DC005B6C43F002027B685A64D7F8E43003F06D
:1032EC000203002B0BD0D7F8DC3003F00103002BCA
:1032FC0005D07B685B6C43F004027B685A64D7F89A
:10330C00E43003F00803002B11D0D7F8E03003F0C1
:10331C002003002B05D1D7F8DC3003F00103002B80
:10332C0005D07B685B6C43F008027B685A647B6851
:10333C005B6C002B00F0F281D7F8E43003F0200333
:10334C00002B08D0D7F8E03003F02003002B02D07C
:10335C00786800F077FB7B681B685B6903F04003BF
:10336C00002B14BF01230023DBB2C7F8D4307B68D9
:10337C005B6C03F00803002B03D1D7F8D430002B7F
:10338C004FD0786800F081FA7B681B685B6903F0AA
:10339C004003002B41D07B681B681433C7F89C306A
:1033AC00D7F89C3053E8003FC7F89830D7F89830DE
:1033BC0023F04003C7F8D0307B681B681433D7F870
:1033CC00D020C7F8A820C7F8A430D7F8A410D7F895
:1033DC00A82041E80023C7F8A030D7F8A030002B74
:1033EC00D9D17B68DB6B002B13D07B68DB6B7E4AFF
:1033FC005A637B68DB6B1846FEF79AFA0346002B80
:10340C0016D07B68DB6B5B6B7A68D26B1046984787
:10341C000EE0786800F093F90AE0786800F08FF914
:10342C0006E0786800F08BF97B6800225A6475E13D
:10343C0000BF73E17B681B6B012B40F04F81D7F809
:10344C00E43003F01003002B00F04881D7F8E03093
:10345C0003F01003002B00F041810023BB607B685C
:10346C001B681B68BB607B681B685B68BB60BB68C8
:10347C007B681B685B6903F04003002B00F0B6808F
:10348C007B68DB6B1B685B68A7F8BE30B7F8BE3097
:10349C00002B00F045817B689B8DB7F8BE209A42CB
:1034AC0080F03E817B68B7F8BE20DA857B68DB6BE9
:1034BC009B69202B00F088807B681B680C33C7F855
:1034CC008830D7F8883053E8003FC7F88430D7F8F5
:1034DC00843023F48073C7F8B8307B681B680C33D6
:1034EC00D7F8B820C7F89420C7F89030D7F89010C8
:1034FC00D7F8942041E80023C7F88C30D7F88C30EB
:10350C00002BD9D17B681B6814337B677B6F53E826
:10351C00003F3B673B6F23F00103C7F8B4307B6877
:10352C001B681433D7F8B420C7F88020FB67F96FF9
:10353C00D7F8802041E80023BB67BB6F002BE1D19B
:10354C007B681B6814333B663B6E53E8003FFB659E
:10355C00FB6D23F04003C7F8B0307B681B68143355
:10356C00D7F8B020FA66BB66B96EFA6E41E8002354
:10357C007B667B6E002BE3D17B68202283F8422094
:10358C007B6800221A637B681B680C33FB64FB6C42
:10359C0053E8003FBB64BB6C23F01003C7F8AC309E
:1035AC007B681B680C33D7F8AC20BA657B65796DEA
:1035BC00BA6D41E800233B653B6D002BE3D17B6882
:1035CC00DB6B1846FEF779F97B6802225A637B683D
:1035DC009A8D7B68DB8D9BB2D31A9BB219467868A7
:1035EC0000F0B6F89CE000BF5B3900087B689A8D50
:1035FC007B68DB8D9BB2D31AA7F8CE307B68DB8D52
:10360C009BB2002B00F08E80B7F8CE30002B00F070
:10361C0089807B681B680C33BB63BB6B53E8003F32
:10362C007B637B6B23F49073C7F8C8307B681B6893
:10363C000C33D7F8C8207A643B64396C7A6C41E857
:10364C000023FB63FB6B002BE3D17B681B681433FB
:10365C007B627B6A53E8003F3B623B6A23F00103C9
:10366C00C7F8C4307B681B681433D7F8C4203A639E
:10367C00FB62F96A3A6B41E80023BB62BB6A002B20
:10368C00E3D17B68202283F842207B6800221A63F6
:10369C007B681B680C333B613B6953E8003FFB6064
:1036AC00FB6823F01003C7F8C0307B681B680C3331
:1036BC00D7F8C020FA61BB61B969FA6941E8002307
:1036CC007B617B69002BE3D17B6802225A63B7F8DC
:1036DC00CE301946786800F03BF823E0D7F8E43098
:1036EC0003F08003002B09D0D7F8E03003F08003FF
:1036FC00002B03D0786800F03EF914E0D7F8E430E2
:10370C0003F04003002B0ED0D7F8E03003F0400359
:10371C00002B08D0786800F07DF904E000BF02E0CF
:10372C0000BF00E000BFE837BD4680BD80B483B069
:10373C0000AF786000BF0C37BD4680BC704780B4CA
:10374C0083B000AF786000BF0C37BD4680BC7047BB
:10375C0080B483B000AF78600B467B8000BF0C3721
:10376C00BD4680BC704780B586B000AFF860B960CC
:10377C003B601346FB713BE03B6AB3F1FF3F37D034
:10378C00FDF784FF02463B68D31A3A6A9A4202D389
:10379C003B6A002B01D103233AE0FB681B68DB6812
:1037AC0003F00403002B23D0BB68802B20D0BB6814
:1037BC00402B1DD0FB681B681B6803F00803082B0B
:1037CC0016D100237B61FB681B681B687B61FB685F
:1037DC001B685B687B617B69F86800F056F8FB68D6
:1037EC0008225A64FB68002283F8402001230FE072
:1037FC00FB681B681A68BB681340BA689A420CBF16
:10380C0001230023DBB21A46FB799A42B4D0002381
:10381C0018461837BD4680BD80B485B000AFF8603F
:10382C00B9601346FB80FB68BA689A62FB68FA8839
:10383C009A85FB68FA88DA85FB6800225A64FB6873
:10384C00222283F84220FB681B69002B07D0FB68FF
:10385C001B68DA68FB681B6842F48072DA60FB68EC
:10386C001B685A69FB681B6842F001025A61FB68CD
:10387C001B68DA68FB681B6842F02002DA600023E0
:10388C0018461437BD4680BC704780B495B000AF65
:10389C0078607B681B680C337B637B6B53E8003F61
:1038AC003B633B6B23F49073FB647B681B680C33AA
:1038BC00FA6C3A64FB63F96B3A6C41E80023BB6326
:1038CC00BB6B002BE5D17B681B6814333B623B6AF6
:1038DC0053E8003FFB61FB6923F00103BB647B6889
:1038EC001B681433BA6CFA62BB62B96AFA6A41E8B3
:1038FC0000237B627B6A002BE5D17B681B6B012B61
:10390C0019D17B681B680C33FB60FB6853E8003FE4
:10391C00BB60BB6823F010037B647B681B680C33B3
:10392C007A6CBA617B617969BA6941E800233B61C1
:10393C003B69002BE5D17B68202283F842207B6811
:10394C0000221A6300BF5437BD4680BC704780B557
:10395C0084B000AF78607B685B6AFB60FB68002218
:10396C00DA85FB680022DA84F868FFF7E8FE00BF0E
:10397C001037BD4680BD80B485B000AF78607B68E1
:10398C0093F84130DBB2212B3ED17B689B68B3F5B9
:10399C00805F14D17B681B69002B10D17B681B6A7C
:1039AC00FB60FB681B881A467B681B68C2F3080225
:1039BC005A607B681B6A9A1C7B681A6208E07B68F9
:1039CC001B6A591C7A6811621A787B681B685A60EA
:1039DC007B68DB8C9BB2013B9BB27A681946D18425
:1039EC00002B0FD17B681B68DA687B681B6822F0A0
:1039FC008002DA607B681B68DA687B681B6842F0BF
:103A0C004002DA60002300E0022318461437BD465A
:103A1C0080BC704780B582B000AF78607B681B6853
:103A2C00DA687B681B6822F04002DA607B6820222F
:103A3C0083F841207868FFF779FE00231846083791
:103A4C00BD4680BD80B58CB000AF78607B6893F8C4
:103A5C004230DBB2222B40F0AE807B689B68B3F522
:103A6C00805F17D17B681B69002B13D10023FB628D
:103A7C007B689B6ABB627B681B685B689BB2C3F309
:103A8C0008039AB2BB6A1A807B689B6A9A1C7B6893
:103A9C009A6226E07B689B6AFB620023BB627B68B0
:103AAC009B68B3F5805F07D07B689B68002B0AD1BD
:103ABC007B681B69002B06D17B681B685B68DAB2DC
:103ACC00FB6A1A7008E07B681B685B68DBB203F06A
:103ADC007F03DAB2FB6A1A707B689B6A5A1C7B689C
:103AEC009A627B68DB8D9BB2013B9BB27A6819466C
:103AFC00D185002B5DD17B681B68DA687B681B68FD
:103B0C0022F02002DA607B681B68DA687B681B682D
:103B1C0022F48072DA607B681B685A697B681B68C8
:103B2C0022F001025A617B68202283F842207B68D4
:103B3C0000225A637B681B6B012B35D17B680022FA
:103B4C001A637B681B680C337B617B6953E8003F0D
:103B5C003B613B6923F010037B627B681B680C3371
:103B6C007A6A3A62FB61F9693A6A41E80023BB61FF
:103B7C00BB69002BE5D17B681B681B6803F0100345
:103B8C00102B0AD10023FB607B681B681B68FB6051
:103B9C007B681B685B68FB60FB687B689B8D1946C8
:103BAC007868FFF7D5FD02E07868FDF73FF9002350
:103BBC0002E0002300E0022318463037BD4680BDEA
:103BCC0080B584B000AF78607B681B681B6923F4F8
:103BDC0040517B68DA687B681B680A431A617B6812
:103BEC009A687B681B691A437B685B691343BB60EB
:103BFC007B681B68DB6823F4B05323F00C037A68F2
:103C0C001268B9680B43D3607B681B685B6923F44B
:103C1C0040717B689A697B681B680A435A617B68B0
:103C2C001B682C4A934203D1FEF7E0FDF86002E0DA
:103C3C00FEF7C8FDF860FA6813469B0013449A001F
:103C4C001A447B685B689B00B2FBF3F3224AA2FB2D
:103C5C0003235B091901FA6813469B0013449A006D
:103C6C001A447B685B689B00B2FBF3F21A4BA3FB14
:103C7C0002035B09642000FB03F3D31A1B013233EC
:103C8C00154AA2FB03235B0903F0F0031944FA68FD
:103C9C0013469B0013449A001A447B685B689B0094
:103CAC00B2FBF3F20C4BA3FB02035B09642000FB99
:103CBC0003F3D31A1B013233074AA2FB03235B091C
:103CCC0003F00F027B681B680A449A6000BF103730
:103CDC00BD4680BD003801401F85EB510EB46FF01E
:103CEC00004100B59CB01DAB029006900791049169
:103CFC000848094953F8042B0591006802A901935F
:103D0C0000F092F90022029B1A701CB05DF804EBD3
:103D1C0003B07047800000200802FFFF03460244F6
:103D2C00934200D1704703F8011BF9E7014B186867
:103D3C00704700BF8000002070B500260C4D0D4C64
:103D4C00641BA410A64209D100F078FC00260A4D91
:103D5C000A4C641BA410A64205D170BD55F8043B57
:103D6C0098470136EEE755F8043B98470136F2E7E1
:103D7C0004470008044700080447000808470008E7
:103D8C007047704738B50546002940D051F8043CBF
:103D9C000C1F002BB8BFE41800F0DEF81C4A1368A7
:103DAC0033B9636014602846BDE8384000F0DAB8D7
:103DBC00A34208D9206821188B4201BF19685B689F
:103DCC0009182160EDE71A465B680BB1A342FAD9DA
:103DDC0011685018A0420BD120680144501883423E
:103DEC001160E0D118685B68084410605360DAE732
:103DFC0002D90C232B60D6E7206821188B4201BF17
:103E0C0019685B680918216063605460CBE738BDA2
:103E1C00FC06002070B50F4E0C463168054611B9F2
:103E2C0000F0AAFB30602146284600F0A5FB431C9D
:103E3C0003D14FF0FF34204670BDC41C24F00304A2
:103E4C00A042F8D0211A284600F096FB0130F2D19E
:103E5C00EFE700BFF80600202DE9F843CD1C25F054
:103E6C00030508350C2D38BF0C25002D064601DB4B
:103E7C00A94204D90C2333600020BDE8F883DFF895
:103E8C00D48000F069F8D8F800301C4644BB2946B1
:103E9C003046FFF7BFFF431C044658D1D8F800400A
:103EAC002746002F43D1002C4BD02368394630468F
:103EBC0004EB030900F060FB814542D121683046D8
:103ECC006D1A2946FFF7A6FF01303AD023682B4420
:103EDC002360D8F800305A6862BBC8F800700FE055
:103EEC002268521B20D40B2A17D96119A3422560D2
:103EFC0018BF5960636808BFC8F8001062514B6066
:103F0C00304600F02FF804F10B00231D20F00700C1
:103F1C00C21A1CBF1B1AA350AFE76268A3420CBFA6
:103F2C00C8F800205A60EBE723466468AEE73C46CD
:103F3C007F68B6E71A465B68A342FBD10023536047
:103F4C00DEE70C233046336000F00CF894E7056094
:103F5C00D6E700BFFC0600200148FFF711BF00BFE9
:103F6C00F40600200148FFF70CBF00BFF406002048
:103F7C002DE9F0471F468E688246BE420C4690469D
:103F8C000B682DD8B1F90C2012F4906F26D065690E
:103F9C00096905EB4505A3EB010905EBD5757B1C00
:103FAC004B446D109D4238BF1D46530527D52946FD
:103FBC00FFF752FF064660B34A46216900F0FAFA51
:103FCC00A38923F4906343F08003A38126614E44BC
:103FDC0026603E466561A5EB0905A560BE4200D989
:103FEC003E4632464146206800F0ACFA0020A368F9
:103FFC009B1BA360236833442360BDE8F0872A46EB
:10400C0000F0E6FA06460028E0D150462169FFF799
:10401C00B9FE0C23CAF80030A3894FF0FF3043F0EF
:10402C004003A381E9E700002DE9F04F98468B8906
:10403C0007461B060D4614469DB010D50B6973B987
:10404C004021FFF709FF2860286130B90C233B6041
:10405C004FF0FF301DB0BDE8F08F40236B610023A3
:10406C00099320238DF8293030234FF00109CDF826
:10407C000C80DFF898818DF82A3023469A4613F885
:10408C00012B0AB1252AF9D1BAEB040B0BD05B46F4
:10409C00224629463846FFF76BFF013000F0A78017
:1040AC00099A5A4409929AF80030002B00F09F802C
:1040BC0000234FF0FF32CDE905230AF1010A0493E6
:1040CC0007938DF853301A935446052214F8011BAC
:1040DC004E4800F061FA049AD8B9D00644BF2023A8
:1040EC008DF85330110744BF2B238DF853309AF8B9
:1040FC0000302A2B15D0544600204FF00A0C079A9A
:10410C00214611F8013B303B092B4BD9B0B107923A
:10411C0014E0A0EB080309FA03F31343A24604933B
:10412C00D2E7039B191D1B680391002BBBBF5B429D
:10413C0042F0020207930793B8BF049223782E2B08
:10414C000AD163782A2B32D1039B02341A1D1B68C7
:10415C00039243EAE3730593DFF8B4A003225046BD
:10416C00217800F019FA38B14022049BA0EB0A0028
:10417C00824013430134049314F8011B0622254892
:10418C008DF8281000F008FA002836D0224B1BBB03
:10419C00039B073323F0070308330393099B334432
:1041AC0009936AE70C4601200CFB0232A8E70023B6
:1041BC004FF00A0C194601340593204610F8012BD8
:1041CC00303A092A03D9002BC6D00591C4E704461E
:1041DC0001230CFB0121F0E703AB00932A46384680
:1041EC000E4B04A9AFF30080421C0646D6D1AB8916
:1041FC005B063FF52DAF09982CE703AB00932A46DD
:10420C003846064B04A900F07DF8EDE7C6460008D9
:10421C00CC460008D0460008000000007D3F000896
:10422C002DE9F047164698468A680B690746934273
:10423C00B8BF1346336091F843200C46DDF820904C
:10424C000AB1013333602368990642BF33680233E5
:10425C003360256815F0060506D104F1190AE368E8
:10426C0032689B1AAB422BDC94F843302268003B3B
:10427C0018BF0123920630D44146384604F143025C
:10428C00C847013023D02368226903F00603042BAE
:10429C0014BF002533684FF0000608BFE56804F131
:1042AC001A0408BFED1A54F8123C08BF25EAE5754C
:1042BC009342C4BF9B1AED18B5421AD1002008E0F6
:1042CC000123524641463846C847013003D14FF0CE
:1042DC00FF30BDE8F0870135C1E73020E11881F8E7
:1042EC0043005A1C94F845102244023382F84310C0
:1042FC00C2E70123224641463846C8470130E6D082
:10430C000136D9E72DE9FF470F7E9146782F80467D
:10431C000C469A460C9E01F1430207D8622F0AD82C
:10432C00002F00F0D380582F00F0BA8004F1420621
:10433C0084F842703AE0A7F16303152BF6D801A17B
:10434C0051F823F0A9430008BD4300083943000885
:10435C00394300083943000839430008BD430008BD
:10436C003943000839430008394300083943000831
:10437C00BF440008E74300087944000839430008AB
:10438C0039430008E144000839430008E7430008BA
:10439C0039430008394300088144000833681A1D6A
:1043AC001B68326004F1420684F8423001239EE01F
:1043BC0033682068191D3160060601D51D6803E0BD
:1043CC004506FBD5B3F90050002D03DA2D236D42C1
:1043DC0084F843300A23594811E0216833680806F1
:1043EC0053F8045B02D4490648BFADB26F2F33605B
:1043FC0014BF0A2308235148002184F8431066682F
:10440C00002EA8BF2168A660A4BF21F00401216082
:10441C000DB9002E4BD01646B5FBF3F103FB11572B
:10442C00C75D06F8017D2F46BB420D46F4D9082B1B
:10443C000BD12368DF0708D5236961689942DEBF79
:10444C00302306F8013C06F1FF36921B22614B46E5
:10445C0021464046CDF800A003AAFFF7E1FE01304B
:10446C004AD14FF0FF3004B0BDE8F087236843F029
:10447C00200323607827324884F84570236831681C
:10448C001F0651F8045B02D45F0648BFADB2316021
:10449C00D90744BF43F0200323601DB11023ABE7C1
:1044AC002648E9E7236823F020032360F6E7164645
:1044BC00BDE733682568181D616930602E061B68DE
:1044CC0001D5196002E06806FBD519800023164659
:1044DC002361BCE7336800211A1D32601E686268D4
:1044EC00304600F059F808B1801B606063682361A6
:1044FC00002384F84330AAE73246494640462369F4
:10450C00D0470130ADD023689B0713D4E068039BE0
:10451C009842B8BF1846A6E70123324649464046A2
:10452C00D04701309DD00135E36803995B1AAB424B
:10453C00F2DCEBE7002504F11906F5E7D746000895
:10454C00E8460008884210B501EB020402D9844207
:10455C00234607D8431EA14208D011F8012B03F8BB
:10456C00012FF8E7014602448A4200D110BD13F82E
:10457C00014D02F8014DF7E738B50023054D04460F
:10458C0008462B60FCF7C8FF431C02D12B6803B113
:10459C00236038BDF0060020034610B5C9B20244B2
:1045AC009342184601D1002003E0047801338C4279
:1045BC00F6D110BD0A44914200F1FF3300D170478F
:1045CC0010B511F8014B914203F8014FF9D110BD10
:1045DC002DE9F041804615460C4621B91146BDE83F
:1045EC00F041FFF739BC2AB9FFF7CCFB0024204679
:1045FC00BDE8F08100F01AF88542064602D8B5EB0A
:10460C00500FF4D829464046FFF726FC07460028F1
:10461C00ECD0B5422A46214628BF3246FFF7CAFFE6
:10462C0021464046FFF7AEFB3C46E0E751F8043C20
:10463C00181F002BBCBF0B58C0187047F8B500BF33
:10464C00F8BC08BC9E467047F8B500BFF8BC08BC67
:04465C009E467047BF
:10466000436F756E74313A202564202D20436F7599
:104670006E74323A2025640A0D0000000A0D000015
:1046800053484F572054494D4500000053594E544C
:104690004158204552524F520A0D000000000000C0
:1046A00000000000010203040607080900000000E2
:1046B0000102030402030405060708090A0B0C0D96
:1046C0000E0F10100102232D302B2000686C4C00BF
:1046D0006566674546470030313233343536373802
:1046E0003941424344454600303132333435363760
:0C46F000383961626364656600000000F8
:0846FC0050BAFF7F010000002D
:044704003101000877
:044708000D01000897
:10470C000100000001000000010000000100000099
:10471C000100000001000000010000000100000089
:10472C000100000001000000010000000100000079
:10473C000100000001000000010000000100000069
:10474C000100000001000000010000000100000059
:10475C0064000000640000006400000064000000BD
:10476C006400000032000000140000001E00000075
:10477C000A00000000127A00100000000100000086
:10478C008400002000000000B80500202006002056
:10479C00880600200000000000000000000000005F
:1047AC0000000000000000000000000000000000FD
:1047BC0000000000000000000000000000000000ED
:1047CC0000000000000000000000000000000000DD
:040000050800159D3D
:00000001FF
